:10091C001008000100020004000800100020004034
:10092C0000801018000100040010000200400008B4
:10093C00002000800828000100040010004008304E
:10094C0000400010000400010838000200080020DC
:10095C0000800840008000200008000210480001C0
:0E096C0000800002004000040020000800107F
:100800007FE87E031209E8AF90EFB40800507B90B8
:100810000816F828287302082E02083302083E0240
:10082000084902085402085F02086A020877E4F5E2
:10083000B080CD755800755900755A0880427558BA
:1008400000755900755A188037755800755900752C
:100850005A28801F755800755900755A30801475D4
:100860005800755900755A38800975580075590037
:10087000755A407F04800B755800755900755A48A9
:100880007F087E0012097B020800E4F5B002080030
:04097B008E5D8F5EA0
:10097F00E4F55FF560C3E560955EE55D6480F8E5DD
:10098F005F6480985027AB58AA59A95A1209BDF530
:10099F00B07402255AF55AE43559F5597FE87E03AC
:0D09AF001209E80560E56070CC055F80C8A6
:0109BC002218
:1009E800E4FDFCC3ED9FEE6480F8EC64809850074A
:0709F8000DBD00010C80ECB5
:0109FF0022D5
:0300000002089063
:0C089000787FE4F6D8FD7581600208D77F
:1009BD00BB010A89828A83E0F5F0A3E02250068705
:1009CD00F009E71922BBFE07E3F5F009E3192289C7
:0B09DD00828A83E493F5F074019322FA
:10089C00020800E493A3F8E493A34003F68001F26A
:1008AC0008DFF48029E493A3F85407240CC8C3335D
:1008BC00C4540F4420C8834004F456800146F6DF2C
:1008CC00E4800B010204081020408090091CE47E97
:1008DC00019360BCA3FF543F30E509541FFEE49321
:1008EC00A360010ECF54C025E060A840B8E493A3E8
:1008FC00FAE493A3F8E493A3C8C582C8CAC583CA13
:10090C00F0A3C8C582C8CAC583CADFE9DEE780BECA
:01097A00007C
:00000001FF
